:020000000F28C7
:10000800DE00030E8312A7000408A8000A08A9004E
:100018005F08AA00392810280F21B2001021B30068
:100028001121B4001221B5001321B6001421B70024
:100038001521B8001621B9001721BA001821BB00F4
:10004800BC01BD01BE01BF01C001C101C201C301A4
:100058008301A2282E28DF0000308A005F0882076B
:10006800342841293D29392935290C1C3C283D28AB
:100078009828E8308F00BE308E000130BE07031884
:10008800BF0A0030BF07420803194B284D2801302A
:100098004E280030A2002208C2004008A200220810
:1000A800C1064008031959285B2801305C28003034
:1000B800A2002208C0004308A20002300310A20DCB
:1000C800FF3E031D622832302207A3004208A40025
:1000D80024072307A50041082507A6002608840051
:1000E800831300082F2083123B083F06031D7E2838
:1000F8003A083E06031D81288228972810102B21D4
:1001080083124308031989288A289028EE30A00012
:100118000230A100252194280030A000A10025214B
:100128008312BE01BF010C102A0829088A0028087A
:100138008400270E8300DE0E5E0E0900831605106C
:100148008510051185150512851283128512073051
:1001580099041F10F03083169F0583121013CF30B7
:100168009005901190101010E8308F00BE308E006E
:100178008B170B1783160C141F2106308312B1003E
:100188001330B000AD30AF00AF0BC828B00BC82893
:10019800B10BC828CF2831210030831285190130CE
:1001A80043060319D828D928D028003085190130EA
:1001B800C300E020D0280F28831243080319E5283C
:1001C800E628FD283E083C07AB003F0803183F0A15
:1001D8003D07AC001921EE308312AD000230AE00AD
:1001E8003C082D02BA003D08031C3D0A2E02BB0044
:1001F8000B293E083C07AB003F0803183F0A3D07A0
:10020800AC00192183123D08BB003C08BA00BE01AE
:10021800BF011014080002340334013404340434D8
:100228000134033402340134003483122C08BD0035
:100238002B08BC0008008312051085100511051253
:10024800080083122108BD002008BC0008008312A2
:10025800051085100511051208008312BC01BD01A7
:10026800080083120510051508008312851005166D
:10027800080083128514051208008312051405115D
:0202880008006C
:08400000FF3FFF3FFF3FFF3FC0
:02400E00C431BB
:00000001FF
