:020000000F28C7
:10000800DE00030E8312B3000408B4000A08B5002A
:100018005F08B6003F281028E120A000E220A100D8
:10002800E320A200E420A300E520A400E620A50028
:10003800E720A600E820A700E920A800EA20A900F8
:10004800EB20AA00EC20AB00ED20AC00EE20AD00C8
:10005800BC01BD01BE01BF01C001C10183019828D7
:100068003428DF0000308A005F0882073A280E290A
:100078000A29062902290C1C422843288E28E83020
:100088008F00BE308E000130BC070318BD0A003057
:10009800BD0740080319512853280130542800305F
:1000A800AE002E08C0003E08AE002E08BF063E086F
:1000B80003195F286128013062280030AE002E083D
:1000C800BE004108AE0002300310AE0DFF3E031D16
:1000D800682820302E07AF004008B00030072F07EF
:1000E800B1003F083107B2003208840083130008CA
:1000F800352083122D083D06031D84282C083C0654
:10010800031D872888288D281010FC208312BC0125
:10011800BD010C10360835088A0034088400330EF7
:100128008300DE0E5E0E090083160510851005118A
:1001380085150512851283128512073099041F1040
:10014800F03083169F0583121013CF30900590115D
:1001580090101010E8308F00BE308E008B170B17F0
:1001680083160C14F6208312851DBB28BC28B728DB
:1001780041080319C028C2280130C3280030B9003B
:100188003908C1004108B9003907283E84008313A3
:100198000008B700840A0008B800EF200230831274
:1001A800BB008630BA009930B900B90BD928BA0B10
:1001B800D928BB0BD928B7280F28023403340134B7
:1001C800043404340134033402340C340334253445
:1001D80003340134003483123808AD003708AC000A
:1001E8001014080083120510851005110512080067
:1001F80083120510851005110512080083120510D9
:100208000515080083128510051608008312851449
:0C021800051208008312051405110800EF
:08400000FF3FFF3FFF3FFF3FC0
:02400E00C431BB
:00000001FF
