:020000000F28C7
:10000800DE00030E8312A5000408A6000A08A70054
:100018005F08A80039281028FD20B000FE20B10094
:10002800FF20B2000021B3000121B4000221B50075
:100038000321B6000421B7000521B8000621B90044
:10004800BA01BB01BC01BD01BE01BF01C001C101B4
:10005800830190282E28DF0000308A005F0882077D
:1000680034282929252921291D290C1C3C283D280B
:100078008628E8308F00BE308E000130BC07031898
:10008800BD0A0030BD07400803194B284D28013030
:100098004E280030A0002008C0003E08A00020081C
:1000A800BF063E08031959285B2801305C28003038
:1000B800A0002008BE004108A00002300310A00DD7
:1000C800FF3E031D622830302007A1004008A2002F
:1000D80022072107A3003F082307A400240884005F
:1000E800831300082F20831239083D06031D7E283C
:1000F80038083C06031D8128822884281010132103
:1001080083120C10280827088A0026088400250E68
:100118008300DE0E5E0E090083160510851005119A
:1001280085150512851283128512073099041F1050
:10013800F03083169F0583121013CF30900590116D
:1001480090101010E8308F00BE308E008B170B1700
:1001580083160C140D2106308312AF001330AE0045
:10016800AD30AD00AD0BB628AE0BB628AF0BB62838
:10017800BD28192100308312851901304106031961
:10018800C628C728BE28003085190130C100CE20F6
:10019800BE280F28831241080319D328D428EB2836
:1001A8003C083A02A9003D08031C3D0A3B02AA008C
:1001B800072116308312AB000330AC003A082B023B
:1001C800B8003B08031C3B0A2C02B900F9283C087C
:1001D8003A07A9003D0803183D0A3B07AA00072172
:1001E80083123B08B9003A08B800BC01BD011014DD
:1001F8000800023403340134043404340134033471
:1002080002340134003483122A08BB002908BA00DA
:1002180008008312051085100511051208008312C5
:10022800051085100511051208008312BA01BB01DB
:10023800080083120510051508008312851005169D
:10024800080083128514051208008312051405118D
:0202580008009C
:08400000FF3FFF3FFF3FFF3FC0
:02400E00C431BB
:00000001FF
