:020000000F28C7
:10000800DE00030E8312A5000408A6000A08A70054
:100018005F08A8001F2B10281123B7001223B8006F
:100028001323B9001423BA001523BB001623BC0000
:100038001723BD001823BE001923BF001A23C000D0
:100048001B23C1001C23C2001D23C3001E23C400A0
:10005800831345308400523039238301D02A332852
:10006800DF0000308A005F08820739287B2B782B55
:10007800752B722B4A08C6004908C5000A30A9002A
:100088000030AA004608AC004508AB0095212908B5
:100098006223B3003308CD004608AA004508A9002A
:1000A80023212A08C6002908C5000A30A900003003
:1000B800AA004608AC004508AB0095212908622330
:1000C800B3003308CC004608AA004508A90023213C
:1000D8002A08C6002908C5000A30A9000030AA006D
:1000E8004608AC004508AB00952129086223B300F7
:1000F8003308CB002430FC224B08232283124C08FF
:10010800232283124D0823223230FC224408C600E1
:100118004308C5000A30A9000030AA004608AC0010
:100128004508AB00952129086223B3003308CD00A8
:100138004608AA004508A90023212A08C60029085C
:10014800C5000A30A9000030AA004608AC004508DE
:10015800AB00952129086223B3003308CC00460878
:10016800AA004508A90023212A08C6002908C500B5
:100178000A30A9000030AA004608AC004508AB00C8
:10018800952129086223B3003308CB001430FC22E0
:100198004B08232283124C08232283124D08232262
:1001A8003230FC224808C6004708C5000A30A900BA
:1001B8000030AA004608AC004508AB009521290884
:1001C8006223B3003308CD004608AA004508A900F9
:1001D80023212A08C6002908C5000A30A9000030D2
:1001E800AA004608AC004508AB00952129086223FF
:1001F800B3003308CC004608AA004508A90023210B
:100208002A08C6002908C5000A30A9000030AA003B
:100218004608AC004508AB00952129086223B300C5
:100228003308CB000130FC224B08232283124C08F0
:10023800232283124D0823223230FC2208002A0888
:10024800AC002908AB000310AC0CAB0C0310AC0CD1
:10025800AB0C2A08AE002908AD000310AE0CAD0C9B
:100268002B082D07B1002C0803182C0A2E07B20002
:100278003208AC003108AB0004300310AC0CAB0CF6
:10028800FF3E031D412931082B07B100320803182E
:10029800320A2C07B20032083107B10032080318BD
:1002A800320AB2003208AC003108AB000310AC0CC3
:1002B800AB0C0310AC0CAB0C0310AC0CAB0C2B0848
:1002C800B1002C08B2003208AC003108AB000310B2
:1002D800AB0DAC0D0310AB0DAC0D31082B07AD0009
:1002E80032080318320A2C07AE000310AD0DAE0D0C
:1002F8002D082902AF002E08031C2E0A2A02B0007E
:10030800003030020A3003192F02031C8D290130F6
:100318008E2900303107A90032080318320AAA00D2
:100328000800AF01AC1F9F29AB09AC09AB0A031940
:10033800AC0AAF01AF0AAA1FA629A909AA09A90AE6
:100348000319AA0A29082A040319D329AE01AE0AF7
:10035800AA1BBA2901300310A90DAA0DFF3E031DDF
:10036800AF290130AD002D08AE07AC292A082C02B0
:10037800031DC02929082B02031CC8292908AB0220
:100388002A08031CAC03AC0201300310AA0CA90C08
:10039800FF3E031DC9290130AE02031DBA292F08EB
:1003A8000319DB29AB09AC09AB0A0319AC0A2C0801
:1003B800AA002B08A9000800E8308F00BE308E0084
:1003C8000130C9070318CA0A0030CA075008031DBC
:1003D800EF290130F0290030A0002008D0004E0895
:1003E800A0002008CF064E08031DFC290130FD2976
:1003F8000030A0002008CE005108A00002300310F1
:10040800A00DFF3E031D032A37302007A100500826
:10041800A20022072107A3004F082307A4002408ED
:10042800840083130008342044084A06031D1E2A4A
:1004380043084906031D080010105D230800AA00A0
:100448008512B430A900282AA90B272A2B2A2C2A7E
:100458008312AB012A08A9002B0A342A0310A90C1D
:10046800FF3E031D322A291C3C2A831285163E2A88
:1004780083128512B430A900412AA90B402A442AC4
:10048800452A01308312A9002908AB0708302B023E
:10049800031C2E2A8516B430A900522AA90B512A0A
:1004A800552A562AB4308312A9005A2AA90B592A68
:1004B8005D2A5E2A080002308A000408840A82073E
:1004C8000034633475347234723465346E34743481
:1004D8005F3470346F3473346934743469346F340E
:1004E8006E343A34203400347434613472346734EE
:1004F800653474345F344F3446345F346E34753445
:100508006D343A34203400344F3446345F346E341A
:1005180075346D345F3454344D34523431343A3494
:10052800203400340A34003451080319AD2A49082C
:100538004702A9004A08031C4A0A4802AA004E2397
:1005480047084102C3004808031C480A4202C40085
:10055800CC2A49084707A9004A0803184A0A480745
:10056800AA004E234008803AAB004808803A2B0284
:10057800031DC02A47083F020318C72A83124008F0
:10058800C4003F08CB2A83124808C4004708C300A8
:10059800C901CA011014080041236E2348232D23E2
:1005A8005823662353230B30B6002630B5005D3040
:1005B800B400B40BDD2AB50BDD2AB60BDD2AE42A1C
:1005C8006A23003083128519013051060319F12A74
:1005D800003085190130D10098223E200D30B50039
:1005E800FB30B400B40BF62AB50BF62AFB2AE52A31
:1005F8008312AE00AD012D082E0784005F22003A59
:10060800031908002D082E0784005F2223220130D9
:100618008312AC002C08AD07FF2A023403340134DE
:1006280004340434013403340234F43401340C3413
:100638000334013400340C1C232BE0210C1028084F
:1006480027088A0026088400250E8300DE0E5E0E29
:10065800090083121013CF309005901190101010DC
:10066800E8308F00BE308E00080064008001840AE4
:1006780004060319003404063A2B83168515051061
:1006880085100511051208008B170B178B1283169E
:100698000C1408002A08C8002908C700080005101B
:1006A80085100511051208001F10F03083169F05EC
:1006B800080005108510051105120800A900290871
:1006C800303E080085128312851608008312C70180
:1006D800C8010800073083129904080005100515A1
:1006E8000800851005160800851405120800051471
:0406F80005110800E0
:08400000FF3FFF3FFF3FFF3FC0
:02400E00C431BB
:00000001FF
