:020000000F28C7
:10000800DE00030E8312A5000408A6000A08A70054
:100018005F08A800822B10289323B7009423B80008
:100028009523B9009623BA009723BB009823BC00F8
:100038009923BD009A23BE009B23BF009C23C000C8
:100048009D23C1009E23C2009F23C300A023C40098
:100058008313453084005230AD238301392B332874
:10006800DF0000308A005F0882073928F82BF42B5C
:10007800F02BEC2B83124A08C6004908C5000A3049
:10008800A9000030AA004608AC004508AB00BD2115
:1000980083122908DA238312B3003308CD004608F7
:1000A800AA004508A900412183122A08C600290888
:1000B800C5000A30A9000030AA004608AC0045086F
:1000C800AB00BD2183122908DA238312B300330859
:1000D800CC004608AA004508A900412183122A0835
:1000E800C6002908C5000A30A9000030AA00460841
:1000F800AC004508AB00BD2183122908DA2383121E
:10010800B3003308CB0024306A2383124B08A022A3
:1001180083124C08A02283124D08A02232306A2391
:1001280083124408C6004308C5000A30A9000030FD
:10013800AA004608AC004508AB00BD218312290877
:10014800DA238312B3003308CD004608AA00450815
:10015800A900412183122A08C6002908C5000A30CF
:10016800A9000030AA004608AC004508AB00BD2134
:1001780083122908DA238312B3003308CC00460817
:10018800AA004508A900412183122A08C6002908A7
:10019800C5000A30A9000030AA004608AC0045088E
:1001A800AB00BD2183122908DA238312B300330878
:1001B800CB0014306A2383124B08A02283124C0808
:1001C800A02283124D08A02232306A2383124808E5
:1001D800C6004708C5000A30A9000030AA00460832
:1001E800AC004508AB00BD2183122908DA2383122D
:1001F800B3003308CD004608AA004508A9004121EC
:1002080083122A08C6002908C5000A30A900003050
:10021800AA004608AC004508AB00BD218312290896
:10022800DA238312B3003308CC004608AA00450835
:10023800A900412183122A08C6002908C5000A30EE
:10024800A9000030AA004608AC004508AB00BD2153
:1002580083122908DA238312B3003308CB00013054
:100268006A2383124B08A02283124C08A02283120F
:100278004D08A02232306A23080083122A08AC00F5
:100288002908AB000310AC0CAB0C0310AC0CAB0C86
:100298002A08AE002908AD000310AE0CAD0C2B08DF
:1002A8002D07B1002C0803182C0A2E07B2003208BB
:1002B800AC003108AB0004300310AC0CAB0CFF3EB3
:1002C800031D602931082B07B10032080318320AD0
:1002D8002C07B2003208AC003108AB002C08AB0088
:1002E800AC0131082B07B10032080318320A2C0779
:1002F800B2003208AC003108AB000310AC0CAB0CF8
:100308000310AC0CAB0C0310AC0CAB0C2B08B100FD
:100318002C08B2003208AC003108AB000310AB0D5A
:10032800AC0D0310AB0DAC0D31082B07AD00320836
:100338000318320A2C07AE000310AD0DAE0D2D08C0
:100348002902AF002E08031C2E0A2A02B000003032
:1003580030020A3003192F020318B329B5290130D6
:10036800B62900303107A90032080318320AAA005A
:1003780008008312AF01AC1FC229C329CA29AB09DF
:10038800AC09AB0A0319AC0AAF01AF0AAA1FCD2901
:10039800CE29D329A909AA09A90A0319AA0A290849
:1003A8002A040319D829D929082AAE01AE0AE7294F
:1003B80001300310A90DAA0DFF3E031DDD290130F0
:1003C800AD002D08AE07AA1FEA29EB29DC292A0867
:1003D8002C02031DF12929082B02031CF429F529F5
:1003E800FB292908AB022A08031CAC03AC02013024
:1003F8000310AA0CA90CFF3E031DFC290130AE0214
:10040800031D072A082AEB292F0803190C2A0D2A8D
:10041800122AAB09AC09AB0A0319AC0A2C08AA00CA
:100428002B08A9000800E83083128F00BE308E0028
:100438000130C9070318CA0A0030CA07500803194F
:10044800262A282A0130292A0030A0002008D000B6
:100458004E08A0002008CF064E080319342A362A71
:100468000130372A0030A0002008CE005108A00033
:1004780002300310A00DFF3E031D3D2A3730200730
:10048800A1005008A20022072107A3004F08230754
:10049800A40024088400831300083420831244082D
:1004A8004A06031D592A43084906031D5C2A5D2A8A
:1004B8005F2A1010D4230800831251080319652AF3
:1004C800662A792A49084702A9004A08031C4A0AE9
:1004D8004802AA00BC23831247084102C300480807
:1004E800031C480A4202C4009C2A49084707A9007D
:1004F8004A0803184A0A4807AA00BC23831240087E
:10050800803AAB004808803A2B02031D8D2A470821
:100518003F020318902A912A972A83124008C400A0
:100528003F08C3009C2A83124808C4004708C30038
:10053800C901CA01101408008312AA008512B43038
:10054800A900A62AA90BA52AA92AAA2A8312AB01BF
:100558002A08A9002B0AB22A0310A90CFF3E031D82
:10056800B02A2918B82ABB2A83128516BD2A8312F5
:100578008512B430A900C02AA90BBF2AC32AC42AED
:1005880001308312A9002908AB0708302B02031C8D
:10059800CE2ACF2AAC2A8516B430A900D32AA90BB3
:1005A800D22AD62AD72AB4308312A900DB2AA90B6B
:0805B800DA2ADE2ADF2A08001E
:1006000003308A000408840A820700346334753496
:100610007234723465346E3474345F3470346F34D1
:1006200073346934743469346F346E343A3420343A
:1006300000347434613472346734653474345F3434
:100640004F3446345F346E3475346D343A3420346C
:1006500000344F3446345F346E3475346D345F3457
:1006600054344D34523431343A34203400340A3462
:100670000034B523E823C823A123CE23DF23C223DC
:100680000B308312B6002630B5005D30B400B40BD9
:10069000472BB50B472BB60B472B4E2BE4230030D3
:1006A00083128519013051060319572B582B5D2BE6
:1006B000003085190130D10060223E200D308312B8
:1006C000B500FB30B400B40B632BB50B632B682B68
:1006D0004F2B0F288312AE00AD01782B2D082E076B
:1006E00084000023A02201308312AC002C08AD0747
:1006F0002D082E0784000023003A031D802B812B38
:100700006E2B08000C1C852B862B892B172283123D
:100710000C10280827088A0026088400250E83006C
:10072000DE0E5E0E09000234033401340434043456
:10073000013403340234F43401340C34033401340E
:10074000003483121013CF309005901190101010C8
:10075000E8308F00BE308E00080064008001840AFB
:100760000406031900340406AE2B83168515051004
:10077000851005110512080083122A08C8002908EF
:10078000C700080083120510851005110512080026
:100790008B170B178B1283160C14080083121F1073
:1007A000F03083169F05080083120510851005118F
:1007B000051208008312A9002908303E080083169C
:1007C00085128312851608008312C701C80108002C
:1007D00007308312990408008312051005150800DC
:1007E000831285100516080083128514051208006F
:0807F000831205140511080035
:08400000FF3FFF3FFF3FFF3FC0
:02400E00C431BB
:00000001FF
