:020000000F28C7
:10000800DE00030E8312A5000408A6000A08A70054
:100018005F08A800412B10285023B7005123B800CF
:100028005223B9005323BA005423BB005523BC0004
:100038005623BD005723BE005823BF005923C000D4
:100048005A23C1005B23C2005C23C3005D23C400A4
:1000580083134530840052306A238301FE2A3328F3
:10006800DF0000308A005F0882073928B52BB12BE2
:10007800AD2BA92B83124A08C6004908C5000A30CF
:10008800A9000030AA004608AC004508AB00BC2116
:100098008312290897238312B3003308CD0046083A
:1000A800AA004508A900412183122A08C600290888
:1000B800C5000A30A9000030AA004608AC0045086F
:1000C800AB00BC218312290897238312B30033089D
:1000D800CC004608AA004508A900412183122A0835
:1000E800C6002908C5000A30A9000030AA00460841
:1000F800AC004508AB00BC21831229089723831262
:10010800B3003308CB0024302C2383124B084D2234
:1001180083124C084D2283124D084D2232302C2375
:1001280083124408C6004308C5000A30A9000030FD
:10013800AA004608AC004508AB00BC218312290878
:1001480097238312B3003308CD004608AA00450858
:10015800A900412183122A08C6002908C5000A30CF
:10016800A9000030AA004608AC004508AB00BC2135
:100178008312290897238312B3003308CC0046085A
:10018800AA004508A900412183122A08C6002908A7
:10019800C5000A30A9000030AA004608AC0045088E
:1001A800AB00BC218312290897238312B3003308BC
:1001B800CB0014302C2383124B084D2283124C0899
:1001C8004D2283124D084D2232302C2383124808C9
:1001D800C6004708C5000A30A9000030AA00460832
:1001E800AC004508AB00BC21831229089723831271
:1001F800B3003308CD004608AA004508A9004121EC
:1002080083122A08C6002908C5000A30A900003050
:10021800AA004608AC004508AB00BC218312290897
:1002280097238312B3003308CC004608AA00450878
:10023800A900412183122A08C6002908C5000A30EE
:10024800A9000030AA004608AC004508AB00BC2154
:100258008312290897238312B3003308CB00013097
:100268002C2383124B084D2283124C084D228312F3
:100278004D084D2232302C23080083122A08AC0086
:100288002908AB000310AC0CAB0C0310AC0CAB0C86
:100298002A08AE002908AD000310AE0CAD0C2B08DF
:1002A8002D07B1002C0803182C0A2E07B2003208BB
:1002B800AC003108AB0004300310AC0CAB0CFF3EB3
:1002C800031D602931082B07B10032080318320AD0
:1002D8002C07B2003208AC003108AB002C08AB0088
:1002E800AC0131082B07B10032080318320A2C0779
:1002F800B2003208AC003108AB000310AC0CAB0CF8
:100308000310AC0CAB0C0310AC0CAB0C2B08B100FD
:100318002C08B2003208AC003108AB000310AB0D5A
:10032800AC0D0310AB0DAC0D31082B07AD00320836
:100338000318320A2C07AE000310AD0DAE0D2D08C0
:100348002902AF002E08031C2E0A2A02B000003032
:1003580030020A3003192F02031CB4290130B529D1
:1003680000303107A90032080318320AAA00080031
:100378008312AF01AC1FC729AB09AC09AB0A03193B
:10038800AC0AAF01AF0AAA1FCE29A909AA09A90A6E
:100398000319AA0A29082A040319FB29AE01AE0A7F
:1003A800AA1BE22901300310A90DAA0DFF3E031D67
:1003B800D7290130AD002D08AE07D4292A082C0210
:1003C800031DE82929082B02031CF0292908AB0280
:1003D8002A08031CAC03AC0201300310AA0CA90CB8
:1003E800FF3E031DF1290130AE02031DE2292F084B
:1003F8000319032AAB09AC09AB0A0319AC0A2C0888
:10040800AA002B08A9000800E83083128F00BE302C
:100418008E000130C9070318CA0A0030CA075008FD
:10042800031D182A0130192A0030A0002008D00026
:100438004E08A0002008CF064E08031D252A0130CB
:10044800262A0030A0002008CE005108A000023063
:100458000310A00DFF3E031D2C2A37302007A100F2
:100468005008A20022072107A3004F082307A40071
:1004780024088400831300083420831244084A06A1
:10048800031D482A43084906031D0800101091233C
:1004980008008312AA008512B430A900532AA90BB8
:1004A800522A562A572A8312AB012A08A9002B0A76
:1004B8005F2A0310A90CFF3E031D5D2A291C672A29
:1004C80083128516692A83128512B430A9006C2A12
:1004D800A90B6B2A6F2A702A01308312A9002908F8
:1004E800AB0708302B02031C592A8516B430A90023
:1004F8007D2AA90B7C2A802A812AB4308312A9007C
:10050800852AA90B842A882A892A08008312510877
:100518000319A12A49084702A9004A08031C4A0AE4
:100528004802AA007923831247084102C3004808F9
:10053800031C480A4202C400C12A49084707A90007
:100548004A0803184A0A4807AA0079238312400870
:10055800803AAB004808803A2B02031DB52A4708A9
:100568003F020318BC2A83124008C4003F08C02A6F
:1005780083124808C4004708C300C901CA011014FF
:10058800080002308A000408840A820700346334B1
:1005980075347234723465346E3474345F34703444
:1005A8006F3473346934743469346F346E343A3464
:1005B80020340034743461347234673465347434EC
:1005C8005F344F3446345F346E3475346D343A34A6
:1005D800203400344F3446345F346E3475346D340F
:1005E8005F3454344D34523431343A342034003486
:1005F8000A3400347223A52385235E238B239C238E
:100608007F230B308312B6002630B5005D30B4006E
:10061800B40B0C2BB50B0C2BB60B0C2B132BA123EB
:10062800003083128519013051060319202B003040
:1006380085190130D1008A223E200D308312B50081
:10064800FB30B400B40B262BB50B262B2B2B142B0D
:100658008312AE00AD012D082E078400C522003A92
:10066800031908002D082E078400C5224D220130E9
:100678008312AC002C08AD072F2B0C1C462B08222C
:1006880083120C10280827088A0026088400250EE3
:100698008300DE0E5E0E0900023403340134043494
:1006A8000434013403340234F43401340C34033494
:1006B8000134003483121013CF309005901190103C
:1006C8001010E8308F00BE308E00080064008001F2
:1006D800840A04060319003404066B2B8316851557
:1006E8000510851005110512080083122A08C80094
:1006F8002908C70008008312051085100511051286
:1007080008008B170B178B1283160C140800831222
:100718001F10F03083169F050800831205108510FE
:100728000511051208008312A9002908303E0800A7
:10073800831685128312851608008312C701C80123
:100748000800073083129904080083120510051564
:1007580008008312851005160800831285140512F7
:0A07680008008312051405110800B3
:08400000FF3FFF3FFF3FFF3FC0
:02400E00C431BB
:00000001FF
